:10000000A4C00000BEC00000BCC00000BAC0000018
:10001000B8C00000B6C00000B4C00000B2C000000C
:10002000B0C00000AEC00000E9C30000ABC40000D7
:10003000A8C00000A6C00000A4C00000A2C000002C
:10004000A0C000000C94B8089CC000009AC000003A
:1000500098C0000096C0000094C0000092C000004C
:1000600090C00000D4C100008CC000008AC0000015
:1000700088C0000086C0000084C0000082C000006C
:1000800080C000007EC000007CC000007AC000007C
:1000900078C0000076C0000074C0000072C000008C
:1000A00070C000006EC000006CC000002E034C0049
:1000B00055004600410020005500530042002D002D
:1000C000520053003200330032002000410064002F
:1000D00061007000740065007200000018034400A5
:1000E000650061006E002000430061006D00650046
:1000F0007200610000000403090409023E000201CD
:1001000000C064090400000102020100052400107F
:1001100001042402060524060001070582030800E5
:10012000FF09040100020A00000007050402100094
:1001300005070583021000051201100102000008E6
:10014000EB034B2001000102DC0111241FBECFEFA5
:10015000DAE0DEBFCDBF11E0A0E0B1E0E0E1F2E126
:1001600002C005900D92AE31B107D9F719E0AEE1AA
:10017000B1E001C01D92A934B107E1F773D00C942E
:1001800006093ECFFC01A081B1816C9380819181F1
:10019000019691838083268137818217930721F40A
:1001A00084819581918380832FB7F894828593858C
:1001B0000196938782872FBF0895FC01A281B381A6
:1001C0008D91B383A28326813781A217B30721F4CF
:1001D00024813581338322839FB7F8942285338528
:1001E00021503109338722879FBF0895CF93DF9332
:1001F000E9ECF0E01082C8ECD0E01882AAECB0E0A4
:100200001C9281E090E09093CD008093CC0082E03E
:10021000888386E08C9388E98083DF91CF9108956D
:1002200084B7877F84BF88E10FB6F894809360001D
:10023000109260000FBE85B7806890E00FB6F8940A
:1002400085BF0FBE85BF90E080E80FB6F89480931D
:100250006100909361000FBEB4D2849A8C983E9A4C
:100260004698C4CFDDDF9BD73F9A239A8FE19EE467
:100270000197F1F700C0000023988FE39CE90197F4
:10028000F1F700C000003F982398229821986E98BB
:10029000EFE1F1E04FB7F8948BE291E09183808336
:1002A00093838283958384838BE295E0978386830F
:1002B00020E034E031872087138612864FBFEBE2BF
:1002C000F5E04FB7F89487E395E0918380839383BB
:1002D00082839583848387E399E09783868331873C
:1002E0002087138612864FBF789411E08FB7F89459
:1002F0002091290130912A018FBF8091270190918F
:1003000028012817390749F080E091E04AD697FD87
:1003100004C0682F8FE191E035DF2FB7F89480910A
:100320003505909136052FBF009729F480911E0165
:10033000811124C04DC0209101012F702093E9004C
:100340002091E80020FFF2CF8031910510F08FE07E
:1003500090E0082FC0E0D0E00EC0E0912D05F091B4
:100360002E05608180E091E0B2D521968111DECF2B
:100370008BE295E022DF0C13F0CFD8CF80913709C4
:100380003F9A239A811111C08FE19EE40197F1F702
:1003900000C000003F988FE39CE90197F1F700C08F
:1003A000000023981093370911C08FE19EE4019754
:1003B000F1F700C0000023988FE39CE90197F1F763
:1003C00000C000003F981092370910DF10921E0104
:1003D0002FB7F8948091290190912A012FBF892B82
:1003E00049F08FE191E0E9DE9091C80095FFFCCFE4
:1003F0008093CE0080E091E0BFD529D577CF0895D6
:10040000089580E091E03EC580E091E001C61F9232
:100410000F920FB60F9211242F933F934F935F9338
:100420006F937F938F939F93AF93BF93EF93FF93BC
:100430006091CE008EB3843019F48BE295E0A2DE99
:10044000FF91EF91BF91AF919F918F917F916F91AC
:100450005F914F913F912F910F900FBE0F901F9082
:100460001895CF93FC01A18DA150A23028F4B0E0E3
:10047000A55EBE4FCC9101C0C0E0808D823009F4F2
:10048000C860828D873031F0883031F0863029F4B1
:10049000C26003C0C46001C0C6601092C90010925F
:1004A000C8001092CA002489358946895789CA0133
:1004B000B901969587957795679560587B47814EEA
:1004C0009F4F82D6215031093093CD002093CC002C
:1004D00082E08093C800C093CA0088E98093C90075
:1004E000CF910895CF93DF93EC018889998981702A
:1004F00099272091380930E082179307E9F05CD6FC
:100500004091390950913A0928892170209338097E
:10051000222341F09C01241B350B81E090E0243123
:10052000310510F080E090E0817080931E0144D688
:1005300090933A0980933909DF91CF910895292F3B
:1005400033272230310539F02330310549F021308D
:10055000310521F128C0EEE3F0E08AEF90E027C0FA
:1005600099278130910561F08230910581F0892BC6
:10057000D1F4E6EFF0E0E491F0E086EF90E017C010
:10058000ECEDF0E0E491F0E08CED90E010C0ECEAEE
:10059000F0E0E491F0E08CEA90E009C0E2E1F0E004
:1005A00088E391E004C0E0E0F0E080E090E0DA0170
:1005B0008D939C93CF010895982F2CC09093E900C0
:1005C000981739F07091EC002091ED005091F000F7
:1005D00003C0242F762F50E021FD02C09F5F1AC078
:1005E0003091EB003E7F3093EB003091ED003D7F8A
:1005F0003093ED003091EB0031603093EB0070935D
:10060000EC002093ED005093F0002091EE0027FDC8
:10061000E5CF07C0973090F28F708093E90081E0BA
:10062000089580E008950F931F93CF93DF93062FD3
:10063000EC0110E02FC09881911103C01F5F259637
:1006400029C02C81E981FA817B81892F8F708730C5
:1006500010F080E022C0223010F056E001C052E0DD
:1006600028E030E040E003C04F5F220F331F2E1719
:100670003F07D0F34295407F452B692F661F6627C1
:10068000661F90E4799F90011124622B95DF811100
:10069000D5CFDFCF1013CFCF81E0DF91CF911F9166
:1006A0000F9108958091410987FD05C08091E80070
:1006B00080FF0DC010C08091E80082FD04C08EB3A1
:1006C0008111F9CF08958091E8008B7707C08EB330
:1006D0008111ECCF08958091E8008E778093E80037
:1006E00008958091E4009091E50045E62091EC00AA
:1006F00020FD1EC022C02EB3222391F0253091F0A0
:100700002091EB0025FD10C02091E4003091E50020
:100710002817390759F34150C90141F784E008957A
:1007200082E0089583E0089581E0089580E00895CF
:100730002091E80020FFDFCFF9CF2091E80022FFD1
:10074000DACFF4CF0F931F93CF93DF934AD051D0DA
:10075000C8EDD0E088818F7788838881806888831E
:1007600088818F7D888319BC1EBA10923D09109232
:100770003F0910923E0900EE10E0F80180818B7F66
:10078000808388818160888342E060E080E014DFBC
:10079000E1EEF0E080818E7F8083E2EEF0E0808108
:1007A00081608083808188608083F80180818E7F72
:1007B0008083888180618883DF91CF911F910F9121
:1007C0000895E8EDF0E080818F7E8083E7EDF0E032
:1007D00080818160808384E082BF81E080934009D2
:1007E000B1CFE8EDF0E080818E7F80831092E2004F
:1007F00008951092DA001092E10008951F920F926E
:100800000FB60F9211242F933F934F935F936F93E3
:100810007F938F939F93AF93BF93EF93FF938091B9
:10082000E10082FF0AC08091E20082FF06C0809151
:10083000E1008B7F8093E10009D38091DA0080FF93
:100840001BC08091D80080FF17C08091DA008E7F96
:100850008093DA008091D90080FF0BC080E189BDD0
:1008600082E189BD09B400FEFDCF81E08EBBC7DD0A
:1008700003C019BC1EBAC4DD8091E10080FF17C01F
:100880008091E20080FF13C08091E2008E7F809310
:10089000E2008091E20080618093E2008091D800C4
:1008A00080628093D80019BC85E08EBBCFD2809146
:1008B000E10084FF2CC08091E20084FF28C080E129
:1008C00089BD82E189BD09B400FEFDCF8091D800C9
:1008D0008F7D8093D8008091E1008F7E8093E1002E
:1008E0008091E2008F7E8093E2008091E20081603F
:1008F0008093E20080913D09811104C08091E30062
:1009000087FF02C084E001C081E08EBB9FD280914E
:10091000E10083FF26C08091E20083FF22C0809126
:10092000E100877F8093E10082E08EBB10923D0959
:100930008091E1008E7F8093E1008091E2008E7FC4
:100940008093E2008091E20080618093E20042E0C7
:1009500060E080E031DE8091F00088608093F000FC
:1009600075D2FF91EF91BF91AF919F918F917F9140
:100970006F915F914F913F912F910F900FBE0F900C
:100980001F9018951F920F920FB60F9211242F935C
:100990003F934F935F936F937F938F939F93AF9307
:1009A000BF93CF93EF93FF938091E9008F70909165
:1009B000EC0090FF02C090E801C090E0C92FC82B66
:1009C0001092E9008091F000877F8093F000789486
:1009D000D7D01092E9008091F00088608093F000F9
:1009E000CF70C093E900FF91EF91CF91BF91AF918C
:1009F0009F918F917F916F915F914F913F912F9137
:100A00000F900FBE0F901F9018954091470950917D
:100A100048094617570748F06115710539F44091A8
:100A2000E8004E774093E80001C0BA01FC0140E0C5
:100A300032C08EB3882309F441C0853009F440C028
:100A40008091E80083FD38C08091E80082FD2EC0CF
:100A50008091E80080FF1FC09091F3008091F20028
:100A6000392F20E0A901482BCA0106C041914093CB
:100A7000F1006150710901966115710519F0883016
:100A80009105A0F341E0089709F040E08091E8006B
:100A90008E778093E8006115710559F64111C9CF31
:100AA00005C08EB3882351F0853051F08091E80065
:100AB00082FFF7CF80E0089581E0089582E00895F5
:100AC00083E0089540914709509148094617570718
:100AD00048F06115710539F44091E8004E77409374
:100AE000E80001C0BA01FC0140E033C08EB38823A6
:100AF00009F442C0853009F441C08091E80083FDCB
:100B000039C08091E80082FD2FC08091E80080FF0D
:100B100020C09091F3008091F200392F20E0A901CC
:100B2000482BCA0107C044914093F10031966150AF
:100B3000710901966115710519F08830910598F3D6
:100B400041E0089709F040E08091E8008E778093BB
:100B5000E8006115710551F64111C8CF05C08EB38B
:100B6000882351F0853051F08091E80082FFF7CF63
:100B700080E0089581E0089582E0089583E008957B
:100B8000EF92FF920F931F93CF93DF93CDB7DEB712
:100B9000AC970FB6F894DEBF0FBECDBFE1E4F9E02D
:100BA0008091F100819329E0E934F207C9F72CDC48
:100BB0008091E80083FF2FC1809141099091420903
:100BC000953009F487C038F49130B1F170F093306A
:100BD00009F021C131C0983009F4F3C0993009F40B
:100BE000FFC0963009F017C19BC0803821F08238D1
:100BF00009F011C108C080913E0990913F099923E5
:100C000089F082600FC080914509909146098F70EC
:100C100099278093E9008091EB0085FB882780F974
:100C20001092E9009091E800977F9093E8008093FC
:100C3000F1001092F100D0C0882319F0823009F041
:100C4000EAC08F7121F0823009F0E5C00BC08091BD
:100C50004309813009F0DFC0933009F080E08093D0
:100C60003F092FC08091430981112BC08091450914
:100C7000909146098F709927009709F4CCC0809312
:100C8000E9002091EB0020FF1CC020914209233095
:100C900021F48091EB00806212C09091EB00906192
:100CA0009093EB0021E030E001C0220F8A95EAF733
:100CB0002093EA001092EA008091EB008860809314
:100CC000EB001092E9008091E800877F8093E800B4
:100CD000E9DCA1C081119FC0009143091091440932
:100CE0000F771127E02EFFB6F8948091E800877FF8
:100CF0008093E800D7DC8091E80080FFFCCF8091F2
:100D0000E3008078802B8093E30080688093E30089
:100D1000EE2011F083E001C082E08EBBFFBE7BC0FD
:100D20008058823008F077C080914309909144093F
:100D30008C3D23E0920771F583E08A838AE2898300
:100D40004FB7F894DE01139620E03EE051E2E32F26
:100D5000F0E050935700E49120FF03C0E295EF705C
:100D60003F5FEF708E2F90E0EA3010F0C79601C021
:100D7000C0968D939D932F5F243149F74FBF80918B
:100D8000E800877F8093E8006AE270E0CE01019678
:100D90003CDE11C0AE01455D5F4F60914509CFDB80
:100DA0000097C9F12091E800277F2093E800BC015B
:100DB0008BA59CA587DE8091E8008B778093E80067
:100DC0002AC0803841F58091E800877F8093E80051
:100DD00080913D098093F1008091E8008E7776CF75
:100DE000811119C0909143099230A8F48091E800D4
:100DF000877F8093E80090933D0954DC80913D0902
:100E0000811104C08091E30087FF02C084E001C02B
:100E100081E08EBBF6DA8091E80083FF0AC0809102
:100E2000EB0080628093EB008091E800877F8093E5
:100E3000E800AC960FB6F894DEBF0FBECDBFDF91D1
:100E4000CF911F910F91FF90EF9008950895CF9348
:100E50008EB38823A9F08091E9008F709091EC0007
:100E600090FF02C090E801C090E0C92FC82B1092FB
:100E7000E9008091E80083FD83DECF70C093E90034
:100E8000CF910895CF93DF93EC014096FC018BE066
:100E9000DF011D928A95E9F782E08C83898783E0E0
:100EA0008E8761E0CE010196BEDB882361F061E0B0
:100EB000CE010696B8DB882331F061E0CE010B96B7
:100EC000DF91CF91B0CB80E0DF91CF910895CF93A8
:100ED000C62F2EB32430F1F4FC014489558966896C
:100EE0007789452B462B472BA9F081818F70809302
:100EF000E9008091E80085FF04C0C093F10080E024
:100F00000AC08091E8008E778093E800EADB8823AE
:100F1000A1F301C082E0CF9108952EB3243051F5A2
:100F2000FC014489558966897789452B462B472BD7
:100F300009F181818F708093E9003091F300209155
:100F4000F200932F80E0822B892B11F480E008952A
:100F50009091E8008091E8008E778093E80095FDFD
:100F6000F5CFBFDB811107C09091E8009E77909389
:100F7000E800089582E008952EB3243089F4FC013E
:100F80004489558966897789452B462B472B41F043
:100F900021812F702093E9002091E80020FDBDCF32
:100FA00008952EB3243019F02FEF3FEF2EC0FC012F
:100FB0004489558966897789452B462B472BA1F3B0
:100FC00086818F708093E9008091E80082FFECCFEA
:100FD0003091F3002091F200932F80E0822B892B37
:100FE00021F02091F10030E002C02FEF3FEF50914F
:100FF000F3004091F200952F80E0842B892B29F497
:101000008091E8008B778093E800C90108950895E6
:10101000CF93DF93EC018091E80083FFA6C0888125
:1010200090E020914509309146092817390709F0C9
:101030009CC080914209813261F020F4803209F035
:1010400094C03DC0823209F46CC0833209F08DC077
:101050007CC080914109813A09F087C08091E80005
:10106000877F8093E8008091E80080FFFCCF4C8967
:101070005D896E897F894093F100BB27A72F962F4A
:10108000852F8093F100CB01AA27BB278093F10025
:10109000472F5527662777274093F100888D809347
:1010A000F100898D8093F1008A8D8093F100809109
:1010B000E8008E778093E800DF91CF91F3CA8091AA
:1010C0004109813209F051C08091E800877F809307
:1010D000E80004C08EB3882309F447C08091E8007B
:1010E00082FFF8CF3091F1002091F1009091F10052
:1010F0008091F1003C8B2D8B9E8B8F8B8091F1002A
:10110000888F8091F100898F8091F1008A8F809182
:10111000E8008B778093E800C5DACE01DF91CF91AC
:10112000A0C980914109813201F58091E800877F53
:101130008093E800B7DA8091430990914409998B34
:10114000888BCE01DF91CF91CDC980914109813249
:1011500061F48091E800877F8093E800A3DA6091D2
:101160004309CE01DF91CF9152CFDF91CF91089506
:101170001F920F920FB60F9211248F939F9380911D
:101180003B0990913C09019690933C0980933B095F
:101190009F918F910F900FBE0F901F9018958BE924
:1011A00090E090938900809388008DE08093810087
:1011B00082E080936F000895F89420913B0930916C
:1011C0003C097894C9010895A1E21A2EAA1BBB1B01
:1011D000FD010DC0AA1FBB1FEE1FFF1FA217B30703
:1011E000E407F50720F0A21BB30BE40BF50B661F19
:1011F000771F881F991F1A9469F7609570958095DD
:1012000090959B01AC01BD01CF010895F894FFCFEB
:10121000008310000001041000000182080000019A
:0E122000000000000000000000000030200070
:00000001FF
